:1000000001288316031386018701F0308800FF3032
:10001000850006308100831203132020D7208C2115
:100020009A21C030B8214C1C29208C214C18CC10AE
:100030004C184F206C210F288719F6201C28080027
:100040003830A7003830A8003830A9003830B00068
:100050000800DB21B100B521DB21B200B521DB2195
:10006000B300B521DB21B400B5214C102708B1063F
:10007000B500031D08002808B206B500031D0800DE
:100080002908B306B500031D08003008B406B50002
:10009000031D08008C214D218C214C140800CB102D
:1000A00062201321C030B8212E21DB21B80038088E
:1000B000B90603196920C00603197E20CA06031970
:1000C0000F2055283130B9003230C0003330CA001B
:1000D00008008C21F9206D200F20C030B821DB21D1
:1000E000A700B521DB21A800B521DB21A900B5219E
:1000F000DB21B000B5218C214D21080062208C212C
:100100008F20C030B821AA206220DB21B800380837
:10011000B9060319C320C0060319D1225528A0012E
:1001200024168A0120089B20003A03199A28A52149
:10013000A00A92280800820731342D3453346534E4
:100140006C3465346334743420345A344F344E3450
:1001500045340034A00124168A012008B620003A54
:100160000319B528A521A00AAD280800820732345A
:100170002D34533468346F34773420345A344F3448
:100180004E34453400348C212422AC22C5228C21EB
:100190003F22AC22C8228C215B22AC22CB228C21B4
:1001A0007722AC22CE228C214C140F20080045105F
:1001B0004610471048100800A001241620080A1411
:1001C000E920003A0319E728A521A00ADE288A01C0
:1001D0000800820745344E345434453452342034B8
:1001E0005A344F344E3445343A340034FF30C90069
:1001F0000800A00124168A0120080521003A0319ED
:100200000429A521A00AFC2808008207533445349C
:10021000543420344E344534573420345034573419
:1002200044343A340034A00124160A142008202152
:10023000003A03191E29A521A00A16298A010800DF
:10024000820731342D344334483441344E344734FA
:10025000453420345034573444340034A00124163B
:100260000A1420083B21003A03193929A521A00AC4
:1002700031298A010800820732342D345334543432
:1002800020345A344F344E3445347C3433342D3496
:1002900045345834493454340034A001241620081D
:1002A0000A145A21003A03195829A521A00A4F29F6
:1002B0008A01080082075034413453345334573490
:1002C0004434203443344F344E3446344934523469
:1002D0004D34453444340034A001F62024160A1469
:1002E00020087A21003A03197829A521A00A70294B
:1002F0008A010800820749346E3463346F347234E3
:100300006534633474342134213421340034FA30B8
:10031000A000A00B89290800BB21A001A4010A1498
:100320002008C421003A03199829A521A00A8F2981
:10033000BB210800A00124162008CA21003A031995
:10034000A429A521A00A9C290800A300FA30A10035
:10035000A10BA829AD21AD210800A30E23080F3958
:10036000240486008616861208002416A52108009B
:10037000A401A52108000530A2008B010B1DBE2998
:100380000B11A20BBE290800820728340C3401345B
:1003900002340034820745344E34543445345234E8
:1003A0002034503441345334533457344F3452345E
:1003B00044343A340034880108140122A500FF3A7D
:1003C000031DEF29880D0B22A500FF3A031DF52917
:1003D000880D1522A500FF3A031DFB29DB29012208
:1003E000FF3A031DEF29250808000B22FF3A031DE1
:1003F000F529250808001522FF3A031DFB292508C9
:1004000008001F22081A3134881A3434081B373484
:10041000881B2A34FF341F22081A3234881A3534D4
:10042000081B3834881B3034FF341F22081A333439
:10043000881A3634081B3934881B2334FF34FF30C4
:10044000A600A60B212A0800A00124168A01200874
:100450003022003A03192F2AA521A00A272A0800D2
:100460008A14820741344334543449345634413475
:100470005434453420345A3431343F340034A001EC
:1004800024168A0120084C22003A03194A2AA52181
:10049000A00A422A8A0108008A14820741344334A0
:1004A00054344934563441345434453420345A3465
:1004B00032343F340034A00124168A012008682217
:1004C000003A0319662AA521A00A5E2A8A010800BB
:1004D0008A14820741344334543449345634413405
:1004E0005434453420345A3433343F340034A0017A
:1004F00024168A0120088322003A0319822AA521A2
:10050000A00A7A2A08008A148207413443345434FA
:100510004934563441345434453420345A34343414
:100520003F340034A00124168A1420089F22003A88
:1005300003199D2AA521A00A952A8A01080082078D
:100540002A342D3420345934453453342034233460
:100550002D344E344F340034C030B8219222C401BF
:10056000BC22DB21C3004308C1060319C12AC2060D
:100570000319C32AB02A08002A30C1002330C20060
:100580000800C414BB2AC410BB2AC41845140800B0
:10059000C41846140800C41847140800C4184814A6
:1005A00008008C21DE22C030B8214518FB224618F5
:1005B0000C2347181D2348182F230800A0012416D8
:1005C0008A0120088A01EB22003A0319EA2AA521B0
:1005D000A00AE12A08008A148207413443345434C3
:1005E00049345634453420345A344F344E3445342B
:1005F00053343A340034A00124168A01200807231A
:10060000003A0319062BA521A00AFE2A08008A1425
:100610008207203431340034A00124160A14200843
:100620001923003A0319172BA521A00A0F2B8A01C1
:1006300008008207203432340034A00124168A01D5
:1006400020082923003A0319282BA521A00A202BD2
:1006500008008A140A148207203433340034A001BD
:1006600024168A0120083B23003A03193A2BA521BE
:10067000A00A322B08008A140A148207203434346A
:02068000003444
:00000001FF
